:020000040000FA
:100000000C9462000C948A000C948A000C948A0070
:100010000C948A000C948A000C948A000C948A0038
:100020000C948A000C948A000C948A000C948A0028
:100030000C948A000C948A000C948A000C948A0018
:100040000C946A040C948A000C9438040C941204E6
:100050000C948A000C948A000C948A000C948A00F8
:100060000C948A000C948A000000000024002700F1
:100070002A0000000000250028002B0000000000DE
:1000800023002600290004040404040404040202DA
:100090000202020203030303030301020408102007
:1000A0004080010204081020010204081020000012
:1000B0000008000201000003040700000000000027
:1000C0000000B40411241FBECFEFD8E0DEBFCDBFC7
:1000D00022E0A6E8B1E001C01D92AE3FB207E1F711
:1000E00011E0A0E0B1E0E8ECFEE002C005900D9266
:1000F000A638B107D9F710E0C2E6D0E004C02197D6
:10010000FE010E945C07C136D107C9F70E9437057E
:100110000C9462070C940000E3E9F1E0A089B18936
:1001200082E08C93A485B5851C92A685B78580E175
:100130008C93108EA489B58986E08C93A289B389AB
:100140008C9180618C93A289B3898C9188608C9307
:10015000A289B3898C9180688C930288F389E02D01
:1001600080818F7D80830895AF92BF92CF92DF927E
:10017000EF92FF920F931F93CF93DF936C017B015C
:100180008B01040F151FEB015E01AE18BF08C017ED
:10019000D10759F06991D601ED91FC910190F08160
:1001A000E02DC6010995892B79F7C501DF91CF9123
:1001B0001F910F91FF90EF90DF90CF90BF90AF9085
:1001C0000895FC01538D448D252F30E0842F90E05D
:1001D000821B930B541710F0CF9608950197089542
:1001E000FC01918D828D981761F0A28DAE0FBF2F0B
:1001F000B11D5D968C91928D9F5F9F73928F90E061
:1002000008958FEF9FEF0895FC01918D828D9817CF
:1002100031F0828DE80FF11D858D90E008958FEF0C
:100220009FEF0895FC01918D228D892F90E0805CD5
:100230009F4F821B91098F739927089583E991E05D
:100240000E94120121E0892B09F420E0822F0895F9
:1002500080E090E0892B29F00E941E0181110C940E
:1002600000000895FC01A48DA80FB92FB11DA35A59
:10027000BF4F2C91848D90E001968F739927848FC6
:10028000A689B7892C93A089B1898C9183708064E9
:100290008C93938D848D981306C00288F389E02D8A
:1002A00080818F7D80830895EF92FF920F931F933B
:1002B000CF93DF93EC0181E0888F9B8D8C8D981319
:1002C0001AC0E889F989808185FF15C09FB7F89425
:1002D000EE89FF896083E889F98980818370806471
:1002E00080839FBF81E090E0DF91CF911F910F91BC
:1002F000FF90EF900895F62E0B8D10E00F5F1F4FCB
:100300000F731127E02E8C8D8E110CC00FB607FCD9
:10031000FACFE889F989808185FFF5CFCE010E9467
:100320003201F1CFEB8DEC0FFD2FF11DE35AFF4FA2
:10033000F0829FB7F8940B8FEA89FB8980818062F5
:10034000CFCFCF93DF93EC01888D8823B9F0AA89B2
:10035000BB89E889F9898C9185FD03C0808186FD80
:100360000DC00FB607FCF7CF8C9185FFF2CF8081CF
:1003700085FFEDCFCE010E943201E9CFDF91CF9111
:100380000895833081F028F4813099F08230A9F00B
:1003900008958730A9F08830C9F08430B1F4809195
:1003A00080008F7D03C0809180008F7780938000D4
:1003B000089584B58F7784BD089584B58F7DFBCF74
:1003C0008091B0008F778093B00008958091B00045
:1003D0008F7DF9CFCF93DF93282F30E0F901E255DD
:1003E000FF4F8491F901E656FF4FD491F901EA5786
:1003F000FF4FC491CC23A1F081110E94C101EC2FC9
:10040000F0E0EE0FFF1FE458FF4FA591B491EC917F
:10041000ED2381E090E009F480E0DF91CF91089531
:1004200080E090E0FACF1F93CF93DF93282F30E046
:10043000F901E255FF4F8491F901E656FF4FD4913F
:10044000F901EA57FF4FC491CC23A9F0162F81116F
:100450000E94C101EC2FF0E0EE0FFF1FEE58FF4F9E
:10046000A591B4918FB7F894EC91111108C0D09573
:10047000DE23DC938FBFDF91CF911F910895DE2B98
:10048000F8CFCF93DF9390E0FC01E656FF4F249125
:100490008A579F4FFC0184918823D1F090E0880F08
:1004A000991FFC01E859FF4FA591B491FC01EE584A
:1004B000FF4FC591D49161110EC09FB7F8948C91F4
:1004C000E22FE0958E238C932881E223E8839FBF5F
:1004D000DF91CF9108958FB7F894EC91E22BEC93D4
:1004E0008FBFF6CF3FB7F89480918B0190918C012C
:1004F000A0918D01B0918E0126B5A89B05C02F3F1C
:1005000019F00196A11DB11D3FBFBA2FA92F982F39
:100510008827BC01CD01620F711D811D911D42E034
:10052000660F771F881F991F4A95D1F708958F92FC
:100530009F92AF92BF92CF92DF92EF92FF920E9472
:1005400072024B015C0188EEC82E83E0D82EE12CAC
:10055000F12C0E947202681979098A099B09683E88
:10056000734081059105A8F321E0C21AD108E10882
:10057000F10888EE880E83E0981EA11CB11CC114FE
:10058000D104E104F10429F7FF90EF90DF90CF90C0
:10059000BF90AF909F908F9008952FB7F89460917F
:1005A0008701709188018091890190918A012FBF04
:1005B0000895FC0101900020E9F73197AF01481B35
:1005C000590BBC0183E991E00C94B4008F929F9287
:1005D000AF92BF920F931F93CF93DF93CDB7DEB748
:1005E000A1970FB6F894DEBF0FBECDBF19A242305F
:1005F00008F44AE08E010F5D1F4F842E912CB12C20
:10060000A12CA50194010E942E07E62FB901CA0171
:10061000EA30F4F4E05DD801EE938D01232B242B16
:10062000252B79F790E080E0109719F0CD010E941A
:10063000D902A1960FB6F894DEBF0FBECDBFDF91F1
:10064000CF911F910F91BF90AF909F908F90089581
:10065000E95CE1CFCF92DF92EF92FF92CF93DF93ED
:100660006C01990FEE08FF08F7FE1FC06DE283E9E9
:1006700091E00E945401EC0166277727CB016C19A9
:100680007D098E099F094AE00E94E602C80FD91F22
:1006900082E391E00E94D9028C0F9D1FDF91CF91E0
:1006A000FF90EF90DF90CF9008954AE0C701B60128
:1006B0000E94E602EC01ECCF0F931F93CF93DF93E0
:1006C000EC0188810E94EA019F838E832885398509
:1006D00082179307F1F085E391E00E94D9028E81A1
:1006E0009F810E942A038A810E94EA014E815F81D4
:1006F0002C813D818417950799F12F5F3F4F3D83F2
:100700002C8381E491E00E94D9028C819D810E941A
:100710002A038E819F81998788872C813D818CA9AE
:100720009DA928173907F9F48EA99FA9892BD9F417
:1007300028AD39AD4AAD5BAD6CAD7DAD8EAD9FAD35
:10074000A0E00E94500779F485E591E00E94D9026B
:1007500082E391E0DF91CF911F910F910C94D90228
:1007600021503109CCCF0E94CD028B019C0168AF92
:1007700019AF8AAF3BAF1CAE1DAE1EAE1FAEDF91F0
:10078000CF911F910F910895EF92FF920F931F93B6
:10079000CF93DF9300D000D0CDB7DEB783E991E0EF
:1007A0000E94F00083E991E00E94F0008E010F5F4B
:1007B0001F4F78018A3341F0F80181938F0183E95B
:1007C00091E00E94F000F6CFC7010E940807182FA1
:1007D00083E991E00E94F0008053990B82309105EB
:1007E00020F4682F812F0E94130283E991E00E9478
:1007F000F0008A3011F08D30C1F783E991E00E945A
:1008000004018A3021F483E991E00E94F0000F9006
:100810000F900F900F90DF91CF911F910F91FF904C
:10082000EF9008951F920F920FB60F9211242F93FD
:100830003F934F935F936F937F938F939F93AF9368
:10084000BF93EF93FF9383E991E00E943201FF9100
:10085000EF91BF91AF919F918F917F916F915F9138
:100860004F913F912F910F900FBE0F901F901895B1
:100870001F920F920FB60F9211242F938F939F9375
:10088000EF93FF93E091A301F091A4018081E091A7
:10089000A901F091AA0182FD1BC090818091AC0159
:1008A0008F5F8F732091AD01821741F0E091AC0111
:1008B000F0E0ED56FE4F958F8093AC01FF91EF91E4
:1008C0009F918F912F910F900FBE0F901F901895B1
:1008D0008081F4CF1F920F920FB60F9211242F93A5
:1008E0003F938F939F93AF93BF9380918701909194
:1008F0008801A0918901B0918A013091860123E09D
:10090000230F2D3758F50196A11DB11D20938601A7
:100910008093870190938801A0938901B0938A0105
:1009200080918B0190918C01A0918D01B0918E01ED
:100930000196A11DB11D80938B0190938C01A09312
:100940008D01B0938E01BF91AF919F918F913F9197
:100950002F910F900FBE0F901F90189526E8230F30
:100960000296A11DB11DD2CFE3E9F1E013821282FC
:1009700088EE93E0A0E0B0E084839583A683B783FC
:1009800084E291E09183808385EC90E09587848771
:1009900084EC90E09787868780EC90E0918B808B49
:1009A00081EC90E0938B828B82EC90E0958B848B32
:1009B00086EC90E0978B868B118E128E138E148EA0
:1009C000E0E3F2E016821782108611861286138603
:1009D0001486158616861786108A118A128A138A3B
:1009E000148A158A80E2E0E0F1E0AEECB2E001901A
:1009F0000D928A95E1F7EAEBF2E084E090E09183D2
:100A0000808385E090E09383828386E090E0938703
:100A1000828787E090E09587848788E090E09787D9
:100A2000868789E090E0918B808B80E2E0E0F1E0C6
:100A3000AAE8B2E001900D928A95E1F7E6E7F2E0CC
:100A40008AE090E0918380838BE090E093838283BF
:100A50008CE090E093878287958784878EE090E092
:100A6000978786878FE090E0918B808B08957894AC
:100A700084B5826084BD84B5816084BD85B58260A3
:100A800085BD85B5816085BD80916E008160809354
:100A90006E001092810080918100826080938100BD
:100AA00080918100816080938100809180008160CD
:100AB000809380008091B10084608093B100809128
:100AC000B00081608093B00080917A008460809350
:100AD0007A0080917A00826080937A0080917A0017
:100AE000816080937A0080917A00806880937A0098
:100AF0001092C1001092720210927302109274024E
:100B00001092750210923202109233021092340247
:100B1000109235020E94CD026B017C014B015C01F9
:100B200028EB820E2BE0921EA11CB11C0E94CD026C
:100B30006C157D058E059F0528F086169706A8067C
:100B4000B906A0F70E9497020E948C008AE591E006
:100B50000E94D9020E94CD026B017C014B015C0115
:100B60003AE0830E911CA11CB11C0E94CD026C15B1
:100B70007D058E059F0528F086169706A806B906FE
:100B8000A0F781E0809346028BE691E00E94D902B3
:100B90000E948C0061E08DE00E94410260E0809143
:100BA000BA020E94410260E08091BC020E944102B0
:100BB00061E08091C4020E94410261E08091C6021E
:100BC0000E94410261E08091C8020E94410261E0FE
:100BD0008091CA020E9441021092BF021092BE028E
:100BE0001092CD021092CC028091BA020E94EA01CA
:100BF0009093C3028093C20261E08DE00E941302D1
:100C00000E94970260E08DE00E941302C0E0D0E0F5
:100C100084EF882E99249394A12CB12C0E94CD02AC
:100C2000672B682B692B09F4CFC00E94CD02C090BE
:100C30008F01D0909001E0909101F09092016C159D
:100C40007D058E059F0508F4DAC0C0908F01D09015
:100C50009001E0909101F09092019B01AC012C1960
:100C60003D094E095F0969017A013AEFC316D104C3
:100C7000E104F10408F4B0C060938F017093900117
:100C8000809391019093920180923E0290923F0254
:100C9000A0924002B092410210924202109243028E
:100CA00010924402109245028091360290913702D0
:100CB000A0913802B091390280933A0290933B029E
:100CC000A0933C02B0933D020E94CD026093360295
:100CD00070933702809338029093390283E991E050
:100CE0000E940401843611F40E94C4030E94CD02C4
:100CF0006B017C0182E791E00E94D9024AE061E049
:100D000070E080E090E00E94E60289E791E00E94B6
:100D1000D9024AE0C701B6010E94E6028BE791E0E2
:100D20000E94D9028091360290913702A091380238
:100D3000B0913902A7019601281B390B4A0B5B0BB6
:100D4000CA01B9014AE00E94E6028BE791E00E94E5
:100D5000D9026091360270913702809138029091E9
:100D60003902C0903A02D0903B02E0903C02F090F1
:100D70003D026C197D098E099F094AE00E94E60236
:100D80008DE791E00E94D9020E94CD024AE00E94C4
:100D9000E6028FE791E00E94D90282E391E00E948F
:100DA000D90283E991E00E940401843611F40E9483
:100DB000C4030E94CD026093360270933702809381
:100DC00038029093390208C00E94CD02623071054A
:100DD0008105910508F029CF8AEB92E00E945C031F
:100DE00086E792E00E945C03209709F417CF0E94E7
:100DF0001E01882309F412CF0E9400000FCF6093D8
:100E00008F017093900180939101909392011DCF77
:100E1000FC0188279927E89421912032E9F32930B1
:100E200010F02E30C8F32B3241F02D3239F4689493
:100E300004C00E942607820F911D219120532A3061
:100E4000C0F31EF4909581959F4F08957AE0979F87
:100E5000902D879F802D910D11240895A1E21A2EC7
:100E6000AA1BBB1BFD010DC0AA1FBB1FEE1FFF1F4E
:100E7000A217B307E407F50720F0A21BB30BE40B9E
:100E8000F50B661F771F881F991F1A9469F76095E5
:100E90007095809590959B01AC01BD01CF0108959F
:100EA0000024A7FD00942A17300540055005600571
:100EB0007005800590050895EE0FFF1F0590F491D1
:100EC000E02D0994F894FFCF01000000010001001B
:100ED000000001000001010000010000000100010C
:100EE0000000000101000001000000005401B400F6
:100EF000E100A1011201F00004010D0A000D0A4EEB
:100F0000657720636C6B3A20000D0A4E657720658B
:100F10006E635F636F756E7465723A200049646C2E
:100F20006500564D4450565F317C315F564D4450FC
:100F3000560A00564D4450525F00564D4450455F8E
:0E0F4000003A323A007C005F564D44504500A6
:107E0000112484B714BE81FFF0D085E080938100F7
:107E100082E08093C00088E18093C10086E0809377
:107E2000C20080E18093C4008EE0C9D0259A86E02C
:107E300020E33CEF91E0309385002093840096BBD3
:107E4000B09BFECF1D9AA8958150A9F7CC24DD24C4
:107E500088248394B5E0AB2EA1E19A2EF3E0BF2EE7
:107E6000A2D0813461F49FD0082FAFD0023811F036
:107E7000013811F484E001C083E08DD089C08234E0
:107E800011F484E103C0853419F485E0A6D080C0E4
:107E9000853579F488D0E82EFF2485D0082F10E0AE
:107EA000102F00270E291F29000F111F8ED06801E7
:107EB0006FC0863521F484E090D080E0DECF843638
:107EC00009F040C070D06FD0082F6DD080E0C81688
:107ED00080E7D80618F4F601B7BEE895C0E0D1E017
:107EE00062D089930C17E1F7F0E0CF16F0E7DF06D8
:107EF00018F0F601B7BEE89568D007B600FCFDCFD4
:107F0000A601A0E0B1E02C9130E011968C91119780
:107F100090E0982F8827822B932B1296FA010C0160
:107F200087BEE89511244E5F5F4FF1E0A038BF0790
:107F300051F7F601A7BEE89507B600FCFDCF97BE46
:107F4000E89526C08437B1F42ED02DD0F82E2BD052
:107F50003CD0F601EF2C8F010F5F1F4F84911BD097
:107F6000EA94F801C1F70894C11CD11CFA94CF0C13
:107F7000D11C0EC0853739F428D08EE10CD085E9AC
:107F80000AD08FE07ACF813511F488E018D01DD067
:107F900080E101D065CF982F8091C00085FFFCCF94
:107FA0009093C60008958091C00087FFFCCF809118
:107FB000C00084FD01C0A8958091C6000895E0E648
:107FC000F0E098E1908380830895EDDF803219F02E
:107FD00088E0F5DFFFCF84E1DECF1F93182FE3DFCA
:107FE0001150E9F7F2DF1F91089580E0E8DFEE27F6
:047FF000FF270994CA
:027FFE00040479
:00000001FF
