:020000040000FA
:100000000C9462000C948A000C948A000C948A0070
:100010000C948A000C948A000C948A000C948A0038
:100020000C948A000C948A000C948A000C948A0028
:100030000C948A000C948A000C948A000C948A0018
:100040000C9487030C948A000C9455030C942F0392
:100050000C948A000C948A000C948A000C948A00F8
:100060000C948A000C948A000000000024002700F1
:100070002A0000000000250028002B0000000000DE
:1000800023002600290004040404040404040202DA
:100090000202020203030303030301020408102007
:1000A0004080010204081020010204081020000012
:1000B0000008000201000003040700000000000027
:1000C0000000D10311241FBECFEFD8E0DEBFCDBFAB
:1000D00011E0A0E0B1E0E6EFFCE002C005900D9277
:1000E000A635B107D9F722E0A6E5B1E001C01D921F
:1000F000AC37B207E1F710E0C2E6D0E004C02197C8
:10010000FE010E947306C136D107C9F70E945A0446
:100110000C9479060C940000AF92BF92CF92DF92BC
:10012000EF92FF920F931F93CF93DF936C017B01AC
:100130008B01040F151FEB015E01AE18BF08C0173D
:10014000D10759F06991D601ED91FC910190F081B0
:10015000E02DC6010995892B79F7C501DF91CF9173
:100160001F910F91FF90EF90DF90CF90BF90AF90D5
:100170000895FC01538D448D252F30E0842F90E0AD
:10018000821B930B541710F0CF9608950197089592
:10019000FC01918D828D981761F0A28DAE0FBF2F5B
:1001A000B11D5D968C91928D9F5F9F73928F90E0B1
:1001B00008958FEF9FEF0895FC01918D828D981720
:1001C00031F0828DE80FF11D858D90E008958FEF5D
:1001D0009FEF0895FC01918D228D892F90E0805C26
:1001E0009F4F821B91098F73992708958FE591E0A6
:1001F0000E94EA0021E0892B09F420E0822F089573
:1002000080E090E0892B29F00E94F60081110C9487
:1002100000000895FC01A48DA80FB92FB11DA35AA9
:10022000BF4F2C91848D90E001968F739927848F16
:10023000A689B7892C93A089B1898C918370806439
:100240008C93938D848D981306C00288F389E02DDA
:1002500080818F7D80830895EF92FF920F931F938B
:10026000CF93DF93EC0181E0888F9B8D8C8D981369
:100270001AC0E889F989808185FF15C09FB7F89475
:10028000EE89FF896083E889F989808183708064C1
:1002900080839FBF81E090E0DF91CF911F910F910C
:1002A000FF90EF900895F62E0B8D10E00F5F1F4F1B
:1002B0000F731127E02E8C8D8E110CC00FB607FC2A
:1002C000FACFE889F989808185FFF5CFCE010E94B8
:1002D0000A01F1CFEB8DEC0FFD2FF11DE35AFF4F1B
:1002E000F0829FB7F8940B8FEA89FB898081806246
:1002F000CFCFCF93DF93EC01888D8823B9F0AA8903
:10030000BB89E889F9898C9185FD03C0808186FDD0
:100310000DC00FB607FCF7CF8C9185FFF2CF80811F
:1003200085FFEDCFCE010E940A01E9CFDF91CF9189
:100330000895833081F028F4813099F08230A9F05B
:1003400008958730A9F08830C9F08430B1F48091E5
:1003500080008F7D03C0809180008F778093800024
:10036000089584B58F7784BD089584B58F7DFBCFC4
:100370008091B0008F778093B00008958091B00095
:100380008F7DF9CFCF93DF93282F30E0F901E2552D
:10039000FF4F8491F901E656FF4FD491F901EA57D6
:1003A000FF4FC491CC23A1F081110E949901EC2F41
:1003B000F0E0EE0FFF1FE458FF4FA591B491EC91D0
:1003C000ED2381E090E009F480E0DF91CF91089582
:1003D00080E090E0FACF1F93CF93DF93282F30E097
:1003E000F901E255FF4F8491F901E656FF4FD49190
:1003F000F901EA57FF4FC491CC23A9F0162F8111C0
:100400000E949901EC2FF0E0EE0FFF1FEE58FF4F16
:10041000A591B4918FB7F894EC91111108C0D095C3
:10042000DE23DC938FBFDF91CF911F910895DE2BE8
:10043000F8CFCF93DF9390E0FC01E656FF4F249175
:100440008A579F4FFC0184918823D1F090E0880F58
:10045000991FFC01E859FF4FA591B491FC01EE589A
:10046000FF4FC591D49161110EC09FB7F8948C9144
:10047000E22FE0958E238C932881E223E8839FBFAF
:10048000DF91CF9108958FB7F894EC91E22BEC9324
:100490008FBFF6CF3FB7F8948091570190915801E4
:1004A000A0915901B0915A0126B5A89B05C02F3FD4
:1004B00019F00196A11DB11D3FBFBA2FA92F982F8A
:1004C0008827BC01CD01620F711D811D911D42E085
:1004D000660F771F881F991F4A95D1F70895FC0171
:1004E00001900020E9F73197AF01481B590BBC017F
:1004F0008FE591E00C948C008F929F92AF92BF9207
:10050000CF92DF92EF92FF920F931F93CF93DF93DF
:10051000CDB7DEB7A1970FB6F894DEBF0FBECDBF43
:100520006C01990FEE08FF08F7FE47C06DE28FE5FA
:1005300091E00E942C018C0122273327A9012C195C
:100540003D094E095F0919A2CE0181967C019AE00E
:10055000892E912CA12CB12CCA01B901A5019401BD
:100560000E943C06605DF70162937F012115310511
:100570004105510589F790E080E0309719F0CF01EF
:100580000E946F02080F191F82E391E00E946F0220
:10059000800F911FA1960FB6F894DEBF0FBECDBF9E
:1005A000DF91CF911F910F91FF90EF90DF90CF904F
:1005B000BF90AF909F908F900895A701960119A2C8
:1005C0008E010F5D1F4F8AE0C82ED12CE12CF12C3B
:1005D000CA01B901A70196010E943C06605DF801BD
:1005E00062938F01211531054105510589F7309737
:1005F00029F0CF010E946F028C01C6CF10E000E00D
:10060000C3CF0F931F93CF93DF93EC010E947C0223
:100610000CE312E0FE01EE0FFF1FEE0FFF1FE05B89
:10062000FD4F6081F80182850E94EB01CC0FDD1F38
:10063000CC0FDD1FC45CDD4F6D89F80184850E94FD
:10064000EB016E89F80186850E94EB016F89F80144
:100650008089DF91CF911F910F910C94EB011F9234
:100660000F920FB60F9211242F933F934F935F93E6
:100670006F937F938F939F93AF93BF93EF93FF936A
:100680008FE591E00E940A01FF91EF91BF91AF9138
:100690009F918F917F916F915F914F913F912F919A
:1006A0000F900FBE0F901F9018951F920F920FB6CC
:1006B0000F9211242F938F939F93EF93FF93E091C9
:1006C0006F01F09170018081E0917501F0917601E8
:1006D00082FD1BC09081809178018F5F8F73209184
:1006E0007901821741F0E0917801F0E0E15AFE4F84
:1006F000958F80937801FF91EF919F918F912F912A
:100700000F900FBE0F901F9018958081F4CF1F920D
:100710000F920FB60F9211242F933F938F939F93B5
:10072000AF93BF9380915B0190915C01A0915D01BB
:10073000B0915E013091560123E0230F2D3758F51B
:100740000196A11DB11D2093560180935B019093EA
:100750005C01A0935D01B0935E018091570190917F
:100760005801A0915901B0915A010196A11DB11DE6
:100770008093570190935801A0935901B0935A0167
:10078000BF91AF919F918F913F912F910F900FBE8D
:100790000F901F90189526E8230F0296A11DB11DFA
:1007A000D2CFEFE5F1E01382128288EE93E0A0E071
:1007B000B0E084839583A683B78384E291E091833C
:1007C000808385EC90E09587848784EC90E0978720
:1007D000868780EC90E0918B808B81EC90E0938B0E
:1007E000828B82EC90E0958B848B86EC90E0978BEB
:1007F000868B118E128E138E148E80E2E0E0F1E073
:10080000A0E5B2E001900D928A95E1F7ECE3F2E009
:1008100015AA14AA17AA16AA10AE11AE12AE13AEDC
:1008200014AE15AE16AE17AE84E090E091838083CF
:1008300085E090E09383828386E090E093878287CF
:1008400087E090E09587848788E090E097878687A7
:1008500089E090E0918B808B80E2E0E0F1E0A0E124
:10086000B2E001900D928A95E1F7ECEFF1E015AA64
:1008700014AA17AA16AA10AE11AE12AE13AE14AE79
:1008800015AE16AE17AE8AE090E0918380838BE0C0
:1008900090E0938382838CE090E0938782879587B2
:1008A00084878EE090E0978786878FE090E0918B39
:1008B000808B0895789484B5826084BD84B581600E
:1008C00084BD85B5826085BD85B5816085BD80911B
:1008D0006E00816080936E00109281008091810093
:1008E000826080938100809181008160809381008B
:1008F000809180008160809380008091B10084604D
:100900008093B1008091B00081608093B0008091AD
:100910007A00846080937A0080917A00826080936C
:100920007A0080917A00816080937A0080917A00C9
:10093000806880937A001092C100E0916F01F0917D
:10094000700182E08083E0916B01F0916C01108274
:10095000E0916D01F0916E0180E18083109277014A
:10096000E0917301F091740186E08083E091710160
:10097000F0917201808180618083E0917101F0913A
:100980007201808188608083E0917101F091720131
:10099000808180688083E0917101F0917201808193
:1009A0008F7D808361E08DE00E94190260E080917C
:1009B0003C020E94190260E080913E020E941902EE
:1009C00061E0809146020E94190261E08091480234
:1009D0000E94190261E080914A020E94190261E0BE
:1009E00080914C020E941902109241021092400222
:1009F00010924F0210924E0280913C020E94C2015E
:100A0000909345028093440290E080E00E940103AD
:100A100061E08DE00E94EB010E944A024B015C0103
:100A200028EEC22E23E0D22EE12CF12C0E944A02A5
:100A3000681979098A099B09683E73408105910507
:100A4000A8F321E0C21AD108E108F10888EE880E67
:100A500083E0981EA11CB11CC114D104E104F1046F
:100A600029F760E08DE00E94EB01C0E0D0E08CEF60
:100A7000882E99249A9494E0692E712C80913C02DE
:100A80000E94C2019093430280934202209144024B
:100A9000309145028217930751F185E391E00E945E
:100AA0006F0280914202909143020E947C028091E9
:100AB0003E020E94C20140914202509143022091A5
:100AC0004002309141028417950709F4A8C02F5FB6
:100AD0003F4F309341022093400281E491E00E9415
:100AE0006F0280914002909141020E947C028091AD
:100AF00042029091430290934502809344022091D8
:100B000074023091750240917602509177026091A3
:100B100078027091790280917A0290917B02A0E034
:100B20000E946706C9F18FB7F89440915B0150911C
:100B30005C0160915D0170915E018FBF9A01AB0114
:100B400060E070E080E090E0A0907402B0907502E8
:100B5000C0907602D0907702E0907802F09079020F
:100B600000917A0210917B020E945E06A4E00E942E
:100B7000670609F008F448C01092740210927502DA
:100B800010927602109277021092780210927902F7
:100B900010927A0210927B022091720230917302BD
:100BA0002115310509F446C080914E0290914F0203
:100BB00037FF38C02F5F3F4F30937302209372028C
:100BC000019690934F0280934E02877099270E945E
:100BD00001038FB7F89400915B0110915C012091A3
:100BE0005D0130915E018FBF009374021093750216
:100BF0002093760230937702109278021092790255
:100C000010927A0210927B02209709F437CF0E944B
:100C1000F600882309F432CF0E9400002FCF215024
:100C2000310957CF2150310930937302209372025A
:100C30000197C7CF2091400230914102809170020C
:100C40009091710228173907F9F28217930754F42B
:100C50000196909371028093700270927302609279
:100C60007202D2CF0197909371028093700290929A
:100C7000730280927202C8CFA1E21A2EAA1BBB1B7C
:100C8000FD010DC0AA1FBB1FEE1FFF1FA217B30758
:100C9000E407F50720F0A21BB30BE40BF50B661F6E
:100CA000771F881F991F1A9469F760957095809532
:100CB00090959B01AC01BD01CF0108952A193B0914
:100CC0004C095D096E097F09800B910B0895002482
:100CD000A7FD00942A1730054005500560057005F2
:100CE000800590050895EE0FFF1F0590F491E02D0B
:100CF0000994F894FFCF01000000010001000000FA
:100D000001000001010000010000000100010000DD
:100D1000000101000001000000002C018C00B9005E
:100D20007901EA00C800DC000D0A000D0A4E657763
:100D300020636C6B3A20000D0A4E657720656E6368
:0C0D40005F636F756E7465723A200000EE
:107E0000112484B714BE81FFF0D085E080938100F7
:107E100082E08093C00088E18093C10086E0809377
:107E2000C20080E18093C4008EE0C9D0259A86E02C
:107E300020E33CEF91E0309385002093840096BBD3
:107E4000B09BFECF1D9AA8958150A9F7CC24DD24C4
:107E500088248394B5E0AB2EA1E19A2EF3E0BF2EE7
:107E6000A2D0813461F49FD0082FAFD0023811F036
:107E7000013811F484E001C083E08DD089C08234E0
:107E800011F484E103C0853419F485E0A6D080C0E4
:107E9000853579F488D0E82EFF2485D0082F10E0AE
:107EA000102F00270E291F29000F111F8ED06801E7
:107EB0006FC0863521F484E090D080E0DECF843638
:107EC00009F040C070D06FD0082F6DD080E0C81688
:107ED00080E7D80618F4F601B7BEE895C0E0D1E017
:107EE00062D089930C17E1F7F0E0CF16F0E7DF06D8
:107EF00018F0F601B7BEE89568D007B600FCFDCFD4
:107F0000A601A0E0B1E02C9130E011968C91119780
:107F100090E0982F8827822B932B1296FA010C0160
:107F200087BEE89511244E5F5F4FF1E0A038BF0790
:107F300051F7F601A7BEE89507B600FCFDCF97BE46
:107F4000E89526C08437B1F42ED02DD0F82E2BD052
:107F50003CD0F601EF2C8F010F5F1F4F84911BD097
:107F6000EA94F801C1F70894C11CD11CFA94CF0C13
:107F7000D11C0EC0853739F428D08EE10CD085E9AC
:107F80000AD08FE07ACF813511F488E018D01DD067
:107F900080E101D065CF982F8091C00085FFFCCF94
:107FA0009093C60008958091C00087FFFCCF809118
:107FB000C00084FD01C0A8958091C6000895E0E648
:107FC000F0E098E1908380830895EDDF803219F02E
:107FD00088E0F5DFFFCF84E1DECF1F93182FE3DFCA
:107FE0001150E9F7F2DF1F91089580E0E8DFEE27F6
:047FF000FF270994CA
:027FFE00040479
:00000001FF
